:100000000C9434000C9451000C9451000C94510049
:100010000C9451000C9451000C9451000C9451001C
:100020000C9451000C9451000C9451000C9451000C
:100030000C9451000C9451000C9451000C945100FC
:100040000C9451000C9451000C9467000C945100D6
:100050000C9451000C9451000C9451000C945100DC
:100060000C9451000C94510011241FBECFEFD8E026
:10007000DEBFCDBF11E0A0E0B1E0EAE6F1E002C0F2
:1000800005900D92A036B107D9F721E0A0E6B1E0C6
:1000900001C01D92A136B207E1F70E94A2000C94A4
:1000A000B3000C94000087E690E09093C500809325
:1000B000C40088E98093C10086E08093C20008955F
:1000C000F8948FEF84B90E945300789408951F929A
:1000D0000F920FB60F9211248F938091C6008093D8
:1000E00060018F910F900FBE0F901F901895909107
:1000F000C00095FFFCCF8093C60008950F931F9317
:10010000CF938C01C0E003C00E947700CF5FF8015D
:10011000EC0FF11D80818111F7CFCF911F910F91CD
:10012000089580E091E00E947E008FE091E00E94BF
:100130007E0087E291E00E947E0089E391E00E94C8
:100140007E0008950E9460008FE491E00E947E008E
:100150000E949100809160018823E1F38091600109
:0A01600010926001F5CFF894FFCF74
:10016A000D0A3D3D3D204D656E75203D3D3D000D1E
:10017A000A312E204C65657220506F74656E636972
:10018A006F6D6574726F000D0A322E20456E7669A6
:10019A006172204153434949000D0A53656C6563F6
:1001AA0063696F6E65206F7063696F6E3A200053E2
:1001BA00697374656D61206C6973746F0D0A000050
:00000001FF
