:100000000C9434000C9451000C9451000C94510049
:100010000C9451000C9451000C9451000C9451001C
:100020000C9451000C9451000C9451000C9451000C
:100030000C9451000C9451000C9451000C945100FC
:100040000C9451000C9451000C946D000C945100D0
:100050000C9451000C9451000C9451000C945100DC
:100060000C9451000C94510011241FBECFEFD8E026
:10007000DEBFCDBF11E0A0E0B1E0E0E7F2E002C0FA
:1000800005900D92A83AB107D9F721E0A8EAB1E0AE
:1000900001C01D92A93AB207E1F70E94A8000C9492
:1000A00036010C94000087E690E09093C5008093A1
:1000B000C40088E98093C10086E08093C20008955F
:1000C000F8948FEF84B980E480937C0087E8809374
:1000D0007A000E945300789408951F920F920FB6F1
:1000E0000F9211248F938091C6008093A8018F9165
:1000F0000F900FBE0F901F9018959091C00095FF24
:10010000FCCF8093C60008950F931F93CF938C016B
:10011000C0E003C00E947D00CF5FF801EC0FF11D2D
:1001200080818111F7CFCF911F910F91089580E0C9
:1001300091E00E9484008FE091E00E94840087E2B9
:1001400091E00E94840089E391E00E948400089578
:10015000CF93DF93CDB7DEB72A970FB6F894DEBF03
:100160000FBECDBF0E9460008FE491E00E9484002A
:100170000E9497008091A8018823E1F38091A80153
:10018000813319F0823309F139C0EAE7F0E0808168
:100190008064808380917A0086FDFCCF8091780016
:1001A000909179004AE0BE016F5F7F4F0E9401018C
:1001B0008FE591E00E948400CE0101960E948400A8
:1001C0008CE591E00E94840019C089E791E00E94CB
:1001D00084001092A8018091A8018823E1F3809106
:1001E000A80185B981E991E00E9484008091A8016D
:1001F0000E947D008CE591E00E9484001092A8018D
:10020000B7CFBB274A3031F4992322F4BDE2909551
:1002100081959F4F0C940D01BB27FB015527AA2701
:10022000880F991FAA1FA41710F0A41B8395505183
:10023000B9F7A05DAA3308F0A95DA193009779F7FB
:10024000B111B1931192CB010C942601DC01FC0198
:10025000672F71917723E1F7329704C07C916D93FA
:1002600070836291AE17BF07C8F30895F894FFCF6B
:100270000D0A3D3D3D204D656E75203D3D3D000D17
:100280000A312E204C65657220506F74656E63696B
:100290006F6D6574726F000D0A322E20456E76699F
:1002A0006172204153434949000D0A53656C6563EF
:1002B00063696F6E65206F7063696F6E3A200053DB
:1002C000697374656D61206C6973746F0D0A0056F3
:1002D000616C6F722064656C20706F74656E636909
:1002E0006F6D6574726F3A20000D0A496E67726512
:1002F000736520756E2063617261637465723A2064
:10030000000D0A43617261637465722072656369EE
:080310006269646F3A200000ED
:00000001FF
