:020000020000FC
:0200000004C139
:0200100035C3F6
:0200400067C394
:0200380063C3A0
:100200003F065B4F666D7D077F670FEF0DBF08E010
:100210000EBFF89401E000936E0001E0009315001A
:100220000E94320301E00093700001E00093170088
:100230000E94370300E80093610004E0009361002E
:100240000FE304B90FED05B902E0009368000FE178
:1002500000936C0000E207B90FEF08B90FEF0AB97D
:1002600080E000E0202E302E402E502E602E802E7A
:10027000902EA02EB02EC02ED02EF02E11E0E12E0A
:1002800020E030E040E050E060E070E0C0E07894D2
:10029000C030B1F0C13091F0C230A9F0C33069F084
:1002A000C43069F0C53069F0C63009F0F1CFCC2711
:1002B00003E005BD04E606BDEBCFD2C094C04CC13F
:1002C00055C0BDC1E5CF00E005BD9091B20090FFE3
:1002D0007395737060E065B90FEF301681F00FEF22
:1002E0005016E9F002E0601699F10AE0501669F143
:1002F00006E0401639F10AE0301609F12EC000E0A0
:10030000401621F04A9409E0302E27C00FEF301636
:1003100009F023C005E0402E09E0302E1EC000E0A9
:10032000601621F06A9409E0502E17C00FEF5016A6
:1003300009F013C002E0602E03E0502E0EC03324FB
:1003400043940BC04424332408C05524639405C04F
:1003500004E0501668F255246624703021F17130A3
:1003600051F1723081F17330B1F192CFB091B2009E
:10037000B0FF73957370513059F43A1441F44B1433
:1003800031F45C1421F46D1411F45F9A3EC05F984F
:1003900060E065B9703039F0713069F0723099F011
:1003A0007330C9F075CFE0E0F2E0E30D84918BB9D2
:1003B00061E065B96DCFE0E0F2E0E40D84918BB9C6
:1003C00062E065B965CFE0E0F2E0E50D84918BB9BC
:1003D00064E065B95DCFE0E0F2E0E60D84918BB9B1
:1003E00068E065B955CFB091B200B0FF73957370F6
:1003F000513059F43A1441F44B1431F45C1439F689
:100400006D1429F65F9A01C05F9860E265B970309B
:1004100039F0713069F0723099F07330C9F038CF2B
:10042000E0E0F2E0EE0D84918BB961E265B930CF86
:10043000E0E0F2E0EF0D84918BB962E265B928CF7C
:10044000E0E0F2E0E10F84918BB964E265B920CF7E
:10045000E0E0F2E0E20F84918BB968E265B918CF71
:1004600000E005BD9091B20090FF7395737060E25B
:1004700065B9312F422F0AE0409F300D1F3F19F11F
:100480003D30F1F0303039F13A3011F10AE0E01648
:1004900029F10FEFE01631F109E0E01601F100E07B
:1004A000E01651F003E0F016A1F501E0E016C1F00E
:1004B00002E0E016B1F0ABCF00E0F016B1F0A7CF4C
:1004C000222711E0A4CF213021F519E022279FCF68
:1004D00021E011279CCF21E012E099CF31C033C039
:1004E00022C02AC000E0F016D1F4323069F0343076
:1004F00089F0363079F0393069F03B3059F001E05D
:10050000E02E03E0F02E83CF08E0E02E02E0F02E94
:100510007ECF7DCF00E0E02E03E0F02E78CFFA947E
:1005200009E0E02E74CF3430E1F23630D1F23930C8
:10053000C1F23B30B1F26BCFFF2401E0E02E67CF78
:10054000F394EE2464CF02E0F01619F7323009F785
:1005500001E0E02EFF245BCF00E005BD9091B200EA
:1005600090FF7395737060E265B90FEFA01681F08C
:100570000FEFC016E9F002E0D01699F10AE0C016BC
:1005800069F106E0B01639F10AE0A01609F12EC0B3
:1005900000E0B01621F0BA9409E0A02E27C00FEFBA
:1005A000A01609F023C005E0B02E09E0A02E1EC061
:1005B00000E0D01621F0DA9409E0C02E17C00FEF4A
:1005C000C01609F013C002E0D02E03E0C02E0EC00A
:1005D000AA24B3940BC0BB24AA2408C0CC24D3946F
:1005E00005C004E0C01668F2CC24DD24703039F078
:1005F000713069F0723099F07330C9F049CEE0E0A3
:10060000F2E0EA0D84918BB961E265B941CEE0E098
:10061000F2E0EB0D84918BB962E265B939CEE0E08E
:10062000F2E0EC0D84918BB964E265B931CEE0E083
:10063000F2E0ED0D84918BB968E265B929CE00E056
:1006400005BD5F9A9091B20090FF7395737060E062
:1006500065B9523019F05F3F19F01ACE51E018CE4B
:1006600050E016CE03E005BD04E606BD089504E0A3
:100670000093B10004E60093B2000895D6B1D0FF14
:10068000C395C03059F0C13061F0C23071F0C33051
:10069000B9F0C43009F1C53059F11895459A2D9833
:1006A0001895459800E205B91895459A2D98D1FFFF
:1006B0005394D2FF5A94D3FF3394D4FF3A941895AD
:1006C000459800E205B9D1FF1395D2FF1A95D3FFE3
:1006D000E394D4FFEA941895459A00E205B9D1FF56
:1006E000C394D2FFCA94D3FFA394D4FFAA941895BD
:1006F000459800E005B9D1FF5395D2FF5A9518955A
:1007000004E60093B200A395A43610F1AA27189529
:1007100004E606BD839404E68016D0F01C9A882473
:1007200023940CE32016A0F0222433940AE0301620
:1007300078F03324439406E0401650F04424539458
:1007400002E0601631F00AE0501668F15524639417
:100750002AC003E0501638F155246624312F422F69
:100760000AE0409F300D3230F9F0343059F1363024
:1007700049F1393039F13B3029F103E0F01609F045
:100780000CC001E0E01648F03C3069F1FF241395FD
:1007900001E0E02E1A3021F106C0E3940AE0E016F1
:1007A00010F0EE24F394189502E0F01609F0F5CF5E
:1007B00008E0E01690F3FF24139501E0E02E1A30D4
:1007C00079F0F1CF03E0F01609F0E7CF00E0E01692
:1007D00020F3FF24139501E0E02E1A3009F0E3CF57
:1007E00011272395E0CFFF24222711E001E0E02E1E
:0207F000DACF5E
:00000001FF
