:020000020000FC
:0200000004C139
:0200100018C214
:0200400008C2F4
:100200003F065B4F666D7D077F670FEF0DBF08E010
:100210000EBFF89401E000936E0001E0009315001A
:100220000E941C0200E80093610004E0009361005A
:100230000FE104B90FEF05B902E00093680003E095
:1002400000936C0000E007B90FEF08B90FEF0AB98F
:1002500080E000E0202E302E402E502E602E802E8A
:10026000902EA02EB02EC02ED02E0FEF102E60E0BC
:1002700070E0C0E07894C03031F0C23029F0C43072
:1002800009F0F9CF6FC03FC0B0FF73957370D6B15E
:10029000D11581F1B5FF2EC0D6B1D11559F11D2E62
:1002A000D1FF6394D2FF5394D3FF4394D4FF33948C
:1002B00060E065B903E06016E1F002E0601699F0D5
:1002C0000AE0501669F006E0401639F00AE03016F0
:1002D00009F010C0332443940DC0442453940AC041
:1002E0005524639407C005E0501668F33324442472
:1002F000552466247030F1F0713021F1723051F1E3
:10030000733081F0B8CFB6B5B0FF7395737060E00D
:1003100065B9703079F07130A9F07230D9F073306E
:1003200009F0A9CFE0E0F2E0E60D84918BB968E036
:1003300065B9A1CFE0E0F2E0E30D84918BB961E013
:1003400065B999CFE0E0F2E0E40D84918BB962E009
:1003500065B991CFE0E0F2E0E50D84918BB964E0FE
:1003600065B989CFB0FF739573703A1439F44B14A3
:1003700029F45C1419F46D1409F45F9A5F98D6B1EE
:10038000D11589F1B5FF2FC0D6B1D11561F11D2E60
:10039000D1FFD394D2FFC394D3FFB394D4FFA394DB
:1003A00060E065B903E0D016E1F002E0D01699F004
:1003B0000AE0C01669F006E0B01639F00AE0A016AF
:1003C00009F011C0AA24B3940EC0BB24C3940BC07F
:1003D000CC24D39408C005E0C01668F3AA24BB243B
:1003E000CC24DD2400C0703039F0713069F07230F7
:1003F00099F07330C9F03FCFE0E0F2E0EA0D84916C
:100400008BB961E065B937CFE0E0F2E0EB0D8491A4
:100410008BB962E065B92FCFE0E0F2E0EC0D84919A
:100420008BB964E065B927CFE0E0F2E0ED0D84918F
:100430008BB968E065B91FCF03E005BD04E606BDD2
:100440000895D6B1D0FFC395C63009F01895C0E025
:100450001895B4E6B6BD839404E6801600F18824AE
:100460001C9A23940CE32016D0F0222433940AE043
:100470003016A8F03324439406E0401680F044245C
:10048000539403E0601631F00AE0501640F0552412
:10049000639405C005E0501610F0552466241895A5
:00000001FF
