:020000020000FC
:0200000004C139
:0200100079C1B4
:020040006BC192
:100200003F065B4F666D7D077F670FEF0DBF08E010
:100210000EBFF89401E000936E0001E0009315001A
:100220000E947D0100E80093610004E000936100FA
:100230000FE104B90FEF05B903E000936C0002E091
:100240000093680000E007B90FEF08B90FEF0AB993
:1002500080E000E0202E302E402E502E602E802E8A
:10026000902E60E070E0C0E07894C030B9F0C23009
:1002700011F0C330FACFD6B1D1FF3394D2FF4394FB
:10028000B0FF739560E065B973707030F1F0713054
:1002900021F1723051F1733081F0E7CFB6B5B0FF84
:1002A000739560E065B97370703079F07130A9F0C2
:1002B0007230D9F0733009F0D8CFE0E0F2E0E60D0B
:1002C00084918BB968E065B9D0CFE0E0F2E0E30D4E
:1002D00084918BB961E065B9C8CFE0E0F2E0E40D4C
:1002E00084918BB962E065B9C0CFE0E0F2E0E50D42
:1002F00084918BB964E065B9B8CF03E005BD04E62D
:1003000006BD08950E947D01D6B1D0FFC395C630C9
:1003100009F01895C0E01895B4E6B6BD839404E6DC
:100320008016D8F088241C9A23940CE32016A8F099
:10033000222433940AE0301680F03324439406E0FC
:10034000401658F0442453940AE0501630F05524D7
:0C035000639403E0601608F06624189522
:00000001FF
