:020000020000FC
:0200000004C139
:02001000A8C185
:0200400098C165
:100200003F065B4F666D7D077F670FEF0DBF08E010
:100210000EBFF89401E000936E0001E0009315001A
:100220000E94AC0100E80093610004E000936100CB
:100230000FE104B90FEF05B902E00093680003E095
:1002400000936C0000E007B90FEF08B90FEF0AB98F
:1002500080E000E0202E302E402E502E602E802E8A
:10026000902E0FEF102E60E070E0C0E07894C03068
:1002700021F0C23019F0C330FACF3FC0B0FF739500
:100280007370D6B1D11581F1B4FF2EC0D6B1D1159E
:1002900059F11D2ED1FF6394D2FF5394D3FF4394A1
:1002A000D4FF339460E065B903E06016E1F002E04A
:1002B000601699F00AE0501669F006E0401639F031
:1002C0000AE0301609F010C0332443940DC04424D2
:1002D00053940AC05524639407C005E0501668F390
:1002E00033244424552466247030F1F0713021F118
:1002F000723051F1733081F0BACFB6B5B0FF73955B
:10030000737060E065B9703079F07130A9F07230C7
:10031000D9F0733009F0ABCFE0E0F2E0E60D849164
:100320008BB968E065B9A3CFE0E0F2E0E30D84911A
:100330008BB961E065B99BCFE0E0F2E0E40D849118
:100340008BB962E065B993CFE0E0F2E0E50D84910E
:100350008BB964E065B98BCF03E005BD04E606BD4B
:100360000895D6B1D0FFC395C63009F01895C0E006
:100370001895B4E6B6BD839404E6801600F188248F
:100380001C9A23940CE32016D0F0222433940AE024
:100390003016A8F03324439406E0401680F044243D
:1003A000539403E0601631F00AE0501640F05524F3
:1003B000639405C005E0501610F055246624189586
:00000001FF
