:020000020000FC
:0200000004C139
:0200100017C215
:0200400021C2DB
:100200003F065B4F666D7D077F670FEF0DBF08E010
:100210000EBFF89401E000936E0001E0009315001A
:100220000E941B0200E80093610004E0009361005B
:100230000FE104B90FEF05B902E0009368000FE188
:1002400000936C0000E007B90FEF08B90FEF0AB98F
:1002500080E000E0202E302E402E502E602E802E8A
:10026000902EA02EB02EC02ED02E0FEF102E60E0BC
:1002700070E0C0E07894C03031F0C23029F0C43072
:1002800009F0F9CF7FC04FC0B0FF7395737060E085
:1002900065B90FEF301681F00FEF5016E9F002E06C
:1002A000601699F10AE0501669F106E0401639F13E
:1002B0000AE0301609F12EC000E0401621F04A9401
:1002C00009E0302E27C00FEF301609F023C005E0FB
:1002D000402E09E0302E1EC000E0601621F06A9426
:1002E00009E0502E17C00FEF501609F013C002E0BE
:1002F000602E03E0502E0EC0332443940BC04424E0
:10030000332408C05524639405C004E0501668F2F5
:10031000552466247030F1F0713021F1723051F1C2
:10032000733081F0A8CFB6B5B0FF7395737060E0FD
:1003300065B9703079F07130A9F07230D9F073304E
:1003400009F099CFE0E0F2E0E60D84918BB968E026
:1003500065B991CFE0E0F2E0E30D84918BB961E003
:1003600065B989CFE0E0F2E0E40D84918BB962E0F9
:1003700065B981CFE0E0F2E0E50D84918BB964E0EE
:1003800065B979CFB0FF739573703A1439F44B1493
:1003900029F45C1419F46D1409F45F9A5F9860E015
:1003A00065B903E0D016E1F002E0D01699F00AE05A
:1003B000C01669F006E0B01639F00AE0A01609F0A0
:1003C00011C0AA24B3940EC0BB24C3940BC0CC2488
:1003D000D39408C005E0C01668F3AA24BB24CC243B
:1003E000DD2400C0703039F0713069F0723099F05E
:1003F0007330C9F040CFE0E0F2E0EA0D84918BB9B0
:1004000061E065B938CFE0E0F2E0EB0D84918BB9A3
:1004100062E065B930CFE0E0F2E0EC0D84918BB999
:1004200064E065B928CFE0E0F2E0ED0D84918BB98E
:1004300068E065B920CF03E005BD04E606BD089578
:10044000D6B1D0FFC395C23029F0C43081F0C63098
:10045000B9F0189503E005BD00E005BDD1FF539448
:10046000D2FF5A94D3FF3394D4FF3A941895D1FF16
:10047000C394D2FFCA94D3FFA394D4FFAA9418952F
:10048000C0E01895B4E6B6BD839404E6801600F18A
:1004900088241C9A23940CE32016D0F02224339451
:1004A0000AE03016A8F03324439406E0401680F0AA
:1004B0004424539403E0601631F00AE0501640F0F3
:1004C0005524639405C005E0501610F055246624A9
:0204D00018957D
:00000001FF
