:100000000C9434000C94B3000C9451000C945100E7
:100010000C94CC000C9451000C9451000C945100A1
:100020000C9451000C9451000C9451000C9451000C
:100030000C9451000C9451000C9451000C945100FC
:100040000C9451000C9451000C94E5000C94510058
:100050000C9451000C9417010C9451000C94510015
:100060000C9451000C94510011241FBECFEFD8E026
:10007000DEBFCDBF11E0A0E0B1E0E4E9F1E102C0F4
:1000800005900D92A432B107D9F721E0A4E2B1E0C6
:1000900001C01D92A335B207E1F70E9497010C94AD
:1000A000C8080C940000F999FECF81BD92BD8FB3B2
:1000B00081608FBB80B50895F999FECF81BD92BD57
:1000C00060BD8FB384608FBB8FB382608FBB089598
:1000D000EF92FF920F931F93CF937B01082F10E0B5
:1000E000000F111F000F111F000F111FC0E00BC0E8
:1000F0008C2F90E0F701E80FF91F6081800F911FAE
:100100000E945C00CF5FC83098F3CF911F910F9190
:10011000FF90EF900895CF92DF92EF92FF920F93AE
:100120001F93CF936B01E82EF12CEE0CFF1CEE0C0D
:10013000FF1CEE0CFF1CC0E00CC08C2F90E0860171
:10014000080F191F8E0D9F1D0E945300F801808318
:10015000CF5FC83090F3CF911F910F91FF90EF9038
:10016000DF90CF9008951F920F920FB60F92112437
:100170008F939F938FE39CE90197F1F700C00000F4
:100180004A9903C081E080932A019F918F910F903B
:100190000FBE0F901F9018951F920F920FB60F92DF
:1001A00011248F939F9386B184FD03C091E09093B7
:1001B000290185FD03C081E0809328019F918F91E3
:1001C0000F900FBE0F901F9018951F920F920FB6B1
:1001D0000F9211248F939F93EF93FF938091C6000A
:1001E0008D3011F08A3071F4E0912501EE2339F061
:1001F000F0E0E45DFE4F108281E0809324011092D4
:1002000025010CC0E0912501EF3140F491E09E0FF3
:1002100090932501F0E0E45DFE4F8083FF91EF9124
:100220009F918F910F900FBE0F901F9018951F9266
:100230000F920FB60F9211248F939F93EF93FF931A
:1002400080915001813061F018F0823089F01CC03B
:100250008091790080934F0181E0809350011EC00E
:100260008091790080934C0182E08093500116C008
:10027000809178009091790090934E0180934D0188
:1002800083E0809350010AC08091780090917900BA
:10029000909352018093510110925001809150012E
:1002A000823010F490E601C090E480915001877094
:1002B000892B80937C00EAE7F0E080818064808372
:1002C000FF91EF919F918F910F900FBE0F901F9014
:1002D000189510925001809150018770806680932C
:1002E0007C00EAE7F0E08FEA808310927B008FE0E9
:1002F00080937E0080818064808308951092C50081
:1003000087E08093C40088E98093C10086E08093F1
:10031000C2000895FC0107C09091C00095FFFCCF7A
:1003200031968093C60080818111F6CF0895CF93D6
:10033000DF93CDB7DEB7A0970FB6F894DEBF0FBE40
:10034000CDBFF89460E074E080E00E942D0460E08E
:1003500074E080E00E946C0468E070E080E00E943D
:10036000D70468E070E080E00E94380584B18160C5
:1003700084B985B18E7F85B98AB18B7F8AB98BB1FB
:1003800084608BB982E08093690091E09DBB97B156
:100390009F7C97B998B1906398B98093680090E377
:1003A00090936C008BBB0E9469010E947E0178943F
:1003B00086E091E00E948A0180912A01882321F140
:1003C0002FEF80E792E0215080409040E1F700C09D
:1003D000000080912B0190E0019683709078992322
:1003E00024F401978C6F9F6F019680932B011092DC
:1003F0002A0180912B01823021F485B1816085B979
:1004000003C085B18E7F85B980912B01813061F465
:1004100095B1892785B92FEF83EC99E02150804071
:100420009040E1F700C0000080912B0181118FC046
:1004300040914F0150E060E070E0DB01CA01880F9D
:10044000991FAA1FBB1F880F991FAA1FBB1F880FC8
:10045000991FAA1FBB1F8C019D01041B150B260BA6
:10046000370BC901B801660F771F881F991F660FE8
:10047000771F881F991FC12CD12C7601CA94A70120
:1004800096010E948705122F40914C0150E060E0D8
:1004900070E0DB01CA01880F991FAA1FBB1F880FDC
:1004A000991FAA1FBB1F880F991FAA1FBB1F2C01D2
:1004B0003D01441A550A660A770AC301B201660F64
:1004C000771F881F991F660F771F881F991FA70125
:1004D00096010E948705590189E0A80EB11C209160
:1004E0004D0130914E01A0E1BEE00E94A9050F2E02
:1004F00044244A94F3E05F2E612C712CF02DA3016B
:1005000092010E948705690190E5C91A9BEFD90AFB
:100510002091510130915201A0E1BEE00E94A90555
:10052000A30192010E948705790180E5E81A8BEF0B
:10053000F80A89E0810F0E946A048A2D0E94D4047F
:10054000C6010E943305C7010E94820535CF809104
:100550002B01813009F0DBC080912901882309F447
:10056000A2C040914F0150E060E070E0DB01CA01A1
:10057000880F991FAA1FBB1F880F991FAA1FBB1F97
:10058000880F991FAA1FBB1F8C019D01041B150B0F
:10059000260B370BC901B801660F771F881F991FFB
:1005A000660F771F881F991FC12CD12C7601CA9422
:1005B000A70196010E948705275F3F4F3A83298351
:1005C00040914C0150E060E070E0DB01CA01880F0F
:1005D000991FAA1FBB1F880F991FAA1FBB1F880F37
:1005E000991FAA1FBB1F8C019D01041B150B260B15
:1005F000370BC901B801660F771F881F991F660F57
:10060000771F881F991FA70196010E948705275F02
:100610003F4F3C832B8320914D0130914E01A0E14F
:10062000BEE00E94A9050F2ECC24CA94F3E0DF2E71
:10063000E12CF12CF02DA70196010E948705205591
:100640003B4F3E832D832091510130915201A0E117
:10065000BEE00E94A905A70196010E9487052055CA
:100660003B4F38872F83BE016F5F7F4F80912701FB
:100670000E9468008091270190E001968370907835
:10068000992324F401978C6F9F6F01968093270123
:10069000109229019FEF23EC89E091502040804087
:1006A000E1F700C0000080912801882309F484CE7E
:1006B000BE016F5F7F4F809126010E948B00809169
:1006C000260190E0019683709078992324F4019795
:1006D0008C6F9F6F01968093260189810E946A0426
:1006E0008B810E94D4048D819E810E9433058F816D
:1006F00098850E948205109228019FEF23EC89E0E3
:10070000915020408040E1F700C0000055CE80911C
:100710002401882309F479C010912C018DE291E025
:100720000E94B805482F592F453B510508F06BC072
:100730001234F9F018F4113439F065C0133471F142
:10074000143409F446C05FC0809305018CE1849F96
:100750009001859F300D1124A1E8B0E80E94A90501
:10076000880F892F881F990B9195875F0E946A04D3
:100770004AC0809304018CE1849F9001859F300DD5
:100780001124A1E8B0E80E94A905880F892F881FCD
:10079000990B9195875F0E94D40435C05093030153
:1007A0004093020180E19EE0489F9001499F300DF7
:1007B000589F300D1124A1E8B0E80E94A905880FC8
:1007C000892F881F990B919580559B4F0E94330567
:1007D0001AC0509301014093000180E19EE0489FC0
:1007E0009001499F300D589F300D1124A1E8B0E8C9
:1007F0000E94A905880F892F881F990B9195805514
:100800009B4F0E94820510922401809101018F93D9
:10081000809100018F93809103018F938091020159
:100820008F93809104011F928F93809105011F92F5
:100830008F9383E191E09F938F938E010F5F1F4F02
:100840001F930F930E94DE05C8010E948A010FB614
:10085000F894DEBF0FBECDBFAFCD9AB190649AB908
:1008600094B5936094BD813021F484B5806C84BDCF
:1008700003C084B5806884BD85B5887F85BD60343C
:100880007105C1F038F46130710561F068307105AF
:1008900069F01CC0611581E0780781F06115744032
:1008A00089F014C085B5816085BD089585B58260E5
:1008B00085BD089585B5836085BD089585B584603F
:1008C00085BD089585B5856085BD089585B585602C
:1008D00085BD089587BD08959AB198609AB9E0EBF7
:1008E000F0E010821092B10090819360908381308B
:1008F00021F480818063808308C0E0EBF0E0808198
:100900008062808380818F7E8083E1EBF0E0808154
:10091000887F80836034710549F150F46830710537
:10092000C9F060327105E1F061307105B9F50CC0B4
:10093000611581E0780731F1611584E0780741F1B4
:100940006038710559F518C0E1EBF0E080818160F5
:1009500080830895E1EBF0E08081826080830895D8
:10096000E1EBF0E08081836080830895E1EBF0E0CB
:100970008081846080830895E1EBF0E08081856070
:1009800080830895E1EBF0E08081866080830895A4
:10099000E1EBF0E08081876080830895E1EBF0E097
:1009A00080818760808308958093B400089594B116
:1009B000946094B9A0E8B0E01C92E1E8F0E0108205
:1009C0009C9192609C93908198619083813031F4E6
:1009D000E0E8F0E080818063808308C0E0E8F0E038
:1009E00080818062808380818F7E80836034710506
:1009F000E1F038F46130710561F06830710579F02B
:100A000026C0611581E07807B1F061157440C9F026
:100A10001EC0E1E8F0E08081816080831DC0E1E8D4
:100A2000F0E080818260808317C0E1E8F0E080819F
:100A30008360808311C0E1E8F0E08081846080837E
:100A40000BC0E1E8F0E080818560808305C0E1E8CB
:100A5000F0E08081826080838FE39CE9909387003F
:100A600080938600089590938B0080938A00089568
:100A700094B1926094B9E0E8F0E090819260908344
:100A8000813021F48081806C808308C0E0E8F0E050
:100A900080818068808380818F7B80836130710555
:100AA00031F4E1E8F0E0808181608083089568306E
:100AB000710531F4E1E8F0E080818260808308957F
:100AC0006034710531F4E1E8F0E080818360808377
:100AD0000895611581E0780731F4E1E8F0E0808164
:100AE0008460808308956115744031F4E1E8F0E09A
:100AF0008081856080830895E1E8F0E080818260F4
:100B00008083089590938900809388000895A1E2DE
:100B10001A2EAA1BBB1BFD010DC0AA1FBB1FEE1F77
:100B2000FF1FA217B307E407F50720F0A21BB30BC2
:100B3000E40BF50B661F771F881F991F1A9469F73E
:100B400060957095809590959B01AC01BD01CF019A
:100B50000895A29FB001B39FC001A39F700D811D96
:100B60001124911DB29F700D811D1124911D0895B6
:100B7000FC0188279927E89421912032E9F3293054
:100B800010F02E30C8F32B3241F02D3239F4689436
:100B900004C00E94D605820F911D219120532A3056
:100BA000C0F31EF4909581959F4F08957AE0979F2A
:100BB000902D879F802D910D11240895AEE0B0E017
:100BC000E4EEF5E00C949F080D891E8986E08C8385
:100BD0001A8309838FEF9FE79E838D83AE01475E63
:100BE0005F4F6F89788DCE0101960E940006EF81DC
:100BF000F885E00FF11F10822E96E4E00C94BB08FC
:100C0000ABE0B0E0E6E0F6E00C9491086C017B010B
:100C10008A01FC0117821682838181FFCCC1CE013B
:100C200001963C01F6019381F70193FD859193FFB5
:100C300081917F01882309F4BAC1853239F493FD8B
:100C4000859193FF81917F01853229F4B60190E06F
:100C50000E94F707E7CF912C212C312CFFE1F315EF
:100C6000D8F08B3279F038F4803279F08332A1F405
:100C7000232D20611DC08D3261F0803369F4232D56
:100C8000216016C0832D8260382EE32DE4603E2E55
:100C90002AC0F32DF8601DC037FC2DC020ED280FB1
:100CA0002A3040F08E32B9F436FC81C1232D206405
:100CB000322E19C036FE06C08AE0989E200D1124FF
:100CC000922E11C0EAE02E9E200D1124222EF32D2B
:100CD000F0623F2E08C08C3621F4832D8068382EB8
:100CE00002C0883641F4F70193FD859193FF81910D
:100CF0007F018111B3CF982F9F7D9554933028F4B5
:100D00000C5F1F4F9FE399830DC0833631F083370B
:100D100071F0833509F059C021C0F80180818983C1
:100D20000E5F1F4F88248394912C530113C0280118
:100D3000F2E04F0E511CF801A080B18036FE03C0D6
:100D4000692D70E002C06FEF7FEFC5010E94EC07D4
:100D50004C018201F32DFF773F2E16C0280122E0BF
:100D6000420E511CF801A080B18036FE03C0692DEF
:100D700070E002C06FEF7FEFC5010E94E1074C01F8
:100D8000F32DF0683F2E820133FC1BC0822D90E0D2
:100D900088169906B0F4B60180E290E00E94F70749
:100DA0002A94F4CFF50137FC859137FE81915F01DC
:100DB000B60190E00E94F70721102A9421E0821AE0
:100DC00091088114910471F7E8C0843611F08936D6
:100DD00041F5F80137FE07C06081718182819381FE
:100DE0000C5F1F4F08C060817181072E000C880BBB
:100DF000990B0E5F1F4FF32DFF763F2E97FF09C013
:100E000090958095709561957F4F8F4F9F4FF068BB
:100E10003F2E2AE030E0A3010E943308882E861876
:100E200045C0853731F4232D2F7EB22E2AE030E0E5
:100E300025C0932D997FB92E8F36C1F018F48835CF
:100E400079F0B5C0803719F0883721F0B0C0E92FAC
:100E5000E061BE2EB4FE0DC0FB2DF460BF2E09C0B4
:100E600034FE0AC0292F2660B22E06C028E030E0EA
:100E700005C020E130E002C020E132E0F801B7FE19
:100E800007C060817181828193810C5F1F4F06C012
:100E90006081718180E090E00E5F1F4FA3010E948E
:100EA0003308882E8618FB2DFF773F2E36FE0DC0A7
:100EB000232D2E7FA22E891458F434FE0BC032FC51
:100EC00009C0832D8E7EA82E05C0B82CA32C03C08C
:100ED000B82C01C0B92CA4FE0FC0FE01E80DF11D15
:100EE0008081803321F49A2D997EA92E09C0A2FE1B
:100EF00006C0B394B39404C08A2D867809F0B394E5
:100F0000A3FC11C0A0FE06C0B21488F4280C922CD9
:100F10009B180EC0B21460F4B60180E290E00E940B
:100F2000F707B394F7CFB21418F42B1802C0982C1B
:100F3000212CA4FE10C0B60180E390E00E94F707C8
:100F4000A2FE17C0A1FC03C088E790E002C088E5BC
:100F500090E0B6010CC08A2D867859F0A1FE02C03F
:100F60008BE201C080E2A7FC8DE2B60190E00E9416
:100F7000F707891438F4B60180E390E00E94F70780
:100F80009A94F7CF8A94F301E80DF11D8081B601A0
:100F900090E00E94F7078110F5CF222009F442CE9D
:100FA000B60180E290E00E94F7072A94F6CFF6019E
:100FB0008681978102C08FEF9FEF2B96E2E10C9420
:100FC000AD08FC010590615070400110D8F7809584
:100FD00090958E0F9F1F0895FC0161507040019005
:100FE0000110D8F7809590958E0F9F1F08950F934D
:100FF0001F93CF93DF93FB01238121FD03C08FEF6C
:101000009FEF2CC022FF16C0468157812481358175
:101010004217530744F4A081B1819D012F5F3F4FD8
:10102000318320838C93268137812F5F3F4F378315
:10103000268314C08B01EC01FB010084F185E02DB7
:101040000995892BE1F6D80116968D919C911797F9
:10105000019617969C938E931697CE01DF91CF91B0
:101060001F910F910895FA01AA27283051F12031DC
:1010700081F1E8946F936E7F6E5F7F4F8F4F9F4F2C
:10108000AF4FB1E03ED0B4E03CD0670F781F891F6E
:101090009A1FA11D680F791F8A1F911DA11D6A0F3C
:1010A000711D811D911DA11D20D009F468943F91EF
:1010B0002AE0269F11243019305D3193DEF6CF01EE
:1010C0000895462F4770405D4193B3E00FD0C9F7B4
:1010D000F6CF462F4F70405D4A3318F0495D31FD21
:1010E0004052419302D0A9F7EACFB4E0A695979574
:1010F000879577956795BA95C9F70097610571054A
:1011000008959B01AC010A2E069457954795379593
:101110002795BA95C9F7620F731F841F951FA01DED
:1011200008952F923F924F925F926F927F928F928B
:101130009F92AF92BF92CF92DF92EF92FF920F9366
:101140001F93CF93DF93CDB7DEB7CA1BDB0B0FB670
:10115000F894DEBF0FBECDBF09942A88398848882D
:101160005F846E847D848C849B84AA84B984C884C3
:10117000DF80EE80FD800C811B81AA81B981CE0FBA
:10118000D11D0FB6F894DEBF0FBECDBFED0108959F
:04119000F894FFCF01
:101194005A005A005A5A39302C39302C39302C39EB
:1011A400300A004125752C4225752C4325752C44A5
:0411B40025750A0093
:00000001FF
