S011000050726F796563746F322E737265638C
S11300000C9434000C9446000C9446000C94460066
S11300100C9446000C9446000C9446000C94460044
S11300200C9446000C9446000C9446000C94460034
S11300300C9446000C9446000C9446000C94460024
S11300400C9446000C9446000C9446000C94460014
S11300500C9446000C940A010C9446000C9446003F
S11300600C9446000C94460011241FBECFEFD8E038
S1130070DEBFCDBF21E0A0E0B1E001C01D92A730FA
S1130080B207E1F70E945B000C94E9020C940000B3
S1130090809100018770806680937C00EAE7F0E03D
S11300A08FEA808310927B008FE080937E008081B2
S11300B0806480830895F89460E074E080E00E9496
S11300C05E0160E074E080E00E949D0168E070E001
S11300D080E00E94080268E070E080E00E9469020B
S11300E00E94480078944091030150E060E070E081
S11300F0DB01CA01880F991FAA1FBB1F880F991F14
S1130100AA1FBB1F880F991FAA1FBB1F8C019D012B
S1130110041B150B260B370BC901B801660F771F9B
S1130120881F991F660F771F881F991FC12CD12C18
S11301307601CA94A70196010E94B802C22F409189
S1130140040150E060E070E0DB01CA01880F991FF0
S1130150AA1FBB1F880F991FAA1FBB1F880F991FB7
S1130160AA1FBB1F8C019D01041B150B260B370B0B
S1130170C901B801660F771F881F991F660F771F83
S1130180881F991FA70196010E94B8028901075F81
S11301901F4F2091050130910601A0E1BEE00E94AD
S11301A0DA020F2E88248A94F3E09F2EA12CB12C1E
S11301B0F02DA50194010E94B802690180E5C81AD6
S11301C08BEFD80A2091010130910201A0E1BEE039
S11301D00E94DA02A50194010E94B802790190E517
S11301E0E91A9BEFF90A89E08C0F0E949B01802F8A
S11301F00E940502C6010E946402C7010E94B30264
S11302002FEF89EF90E0215080409040E1F700C04B
S1130210000069CF1F920F920FB60F9211248F9393
S11302209F93EF93FF9380910001813071F028F048
S1130230823099F08330E9F026C080917900809370
S1130240030181E0809300011EC0809179008093B6
S1130250040182E08093000116C08091780090919F
S11302607900909306018093050183E08093000157
S11302700AC0809178009091790090930201809354
S113028001011092000180910001823010F490E687
S113029001C090E4809100018770892B80937C00D9
S11302A0EAE7F0E0808180648083FF91EF919F9181
S11302B08F910F900FBE0F901F9018959AB1906474
S11302C09AB994B5936094BD813021F484B5806C5F
S11302D084BD03C084B5806884BD85B5887F85BD31
S11302E060347105C1F038F46130710561F0683033
S11302F0710569F01CC0611581E0780781F0611512
S1130300744089F014C085B5816085BD089585B5B4
S1130310826085BD089585B5836085BD089585B5E2
S1130320846085BD089585B5856085BD089585B5CE
S1130330856085BD089587BD08959AB198609AB97E
S1130340E0EBF0E010821092B10090819360908312
S1130350813021F480818063808308C0E0EBF0E089
S113036080818062808380818F7E8083E1EBF0E0F6
S11303708081887F80836034710549F150F468304E
S11303807105C9F060327105E1F061307105B9F5AC
S11303900CC0611581E0780731F1611584E07807BC
S11303A041F16038710559F518C0E1EBF0E0808146
S11303B0816080830895E1EBF0E080818260808336
S11303C00895E1EBF0E08081836080830895E1EBA0
S11303D0F0E08081846080830895E1EBF0E0808127
S11303E0856080830895E1EBF0E0808186608083FE
S11303F00895E1EBF0E08081876080830895E1EB6C
S1130400F0E080818760808308958093B40008952C
S113041094B1946094B9A0E8B0E01C92E1E8F0E0F3
S113042010829C9192609C9390819861908381301A
S113043031F4E0E8F0E080818063808308C0E0E884
S1130440F0E080818062808380818F7E808360344D
S11304507105E1F038F46130710561F068307105BF
S113046079F026C0611581E07807B1F06115744018
S1130470C9F01EC0E1E8F0E08081816080831DC086
S1130480E1E8F0E080818260808317C0E1E8F0E079
S113049080818360808311C0E1E8F0E08081846022
S11304A080830BC0E1E8F0E080818560808305C033
S11304B0E1E8F0E08081826080838FE39CE990939F
S11304C0870080938600089590938B0080938A0020
S11304D0089594B1926094B9E0E8F0E0908192605C
S11304E09083813021F48081806C808308C0E0E8AF
S11304F0F0E080818068808380818F7B808361309D
S1130500710531F4E1E8F0E0808181608083089531
S11305106830710531F4E1E8F0E080818260808325
S113052008956034710531F4E1E8F0E0808183607E
S113053080830895611581E0780731F4E1E8F0E003
S113054080818460808308956115744031F4E1E80A
S1130550F0E08081856080830895E1E8F0E08081A7
S11305608260808308959093890080938800089521
S1130570A1E21A2EAA1BBB1BFD010DC0AA1FBB1FA3
S1130580EE1FFF1FA217B307E407F50720F0A21B15
S1130590B30BE40BF50B661F771F881F991F1A9482
S11305A069F760957095809590959B01AC01BD01AC
S11305B0CF010895A29FB001B39FC001A39F700D06
S11305C0811D1124911DB29F700D811D1124911D57
S10905D00895F894FFCF2A
S9030000FC
