:100000000C9434000C9446000C9446000C9446006A
:100010000C9446000C9446000C9446000C94460048
:100020000C9446000C9446000C9446000C94AC01D1
:100030000C9446000C949D010C9446000C944600D0
:100040000C9446000C9446000C9446000C94460018
:100050000C9446000C9446000C9446000C94460008
:100060000C9446000C94460011241FBECFEFD8E03C
:10007000DEBFCDBF21E0A0E0B1E001C01D92A23003
:10008000B207E1F70E9488000C9433020C94000040
:1000900080E680937C0087E880937A0087E08093F5
:1000A0007E00089580E680937C00EAE7F0E080819E
:1000B0008064808380917A0086FDFCCF80917900F6
:1000C000089581E680937C00EAE7F0E08081806417
:1000D000808380917A0086FDFCCFEAE7F0E08081A2
:1000E0008064808380917A0086FDFCCF80917900C6
:1000F000089582E680937C00EAE7F0E080818064E6
:10010000808380917A0086FDFCCF809179000895EC
:10011000F89460E074E080E00E94C30160E074E065
:1001200080E00E94DC0061E070E08FEC97E00E94CC
:1001300047010E94480078940E945200D82F0E94E4
:100140006100182F0E947900C82F4CE14D9F90014B
:100150001124A1E8B0E80E942402FC01EE0FEF2F69
:10016000EE1FFF0BF195419F900111240E94240284
:10017000880F892F881F990B9195D9E0D80F89E0B6
:100180008E0F0E9400028D2F0E9444012C2F30E020
:10019000AFECB7E00E9424022FEF30E040E050E0E7
:1001A0000E940202C9010E948D018FE39CE9019720
:1001B000F1F700C00000C0CF9AB198609AB9E0EBA7
:1001C000F0E010821092B1009081936090838130B2
:1001D00021F480818063808308C0E0EBF0E08081BF
:1001E0008062808380818F7E8083E1EBF0E080817C
:1001F000887F80836034710549F150F4683071055F
:10020000C9F060327105E1F061307105B9F50CC0DB
:10021000611581E0780731F1611584E0780741F1DB
:100220006038710559F518C0E1EBF0E0808181601C
:1002300080830895E1EBF0E08081826080830895FF
:10024000E1EBF0E08081836080830895E1EBF0E0F2
:100250008081846080830895E1EBF0E08081856097
:1002600080830895E1EBF0E08081866080830895CB
:10027000E1EBF0E08081876080830895E1EBF0E0BE
:1002800080818760808308958093B40008959C01E5
:1002900094B1926094B9109280001092810083E032
:1002A00080936F003093890020938800603471053B
:1002B000E1F038F46130710561F06830710579F072
:1002C00026C0611581E07807B1F061157440C9F06E
:1002D0001EC0E1E8F0E08081816080830895E1E85C
:1002E000F0E08081826080830895E1E8F0E0808121
:1002F000836080830895E1E8F0E0808184608083FA
:100300000895E1E8F0E08081856080830895E1E868
:10031000F0E080818560808308952091880030918D
:1003200089002817390720F480918800909189006E
:1003300090938B0080938A0008951F920F920FB6BE
:100340000F9211248F9385B1826085B98F910F90A0
:100350000FBE0F901F9018951F920F920FB60F921D
:1003600011248F939F939091010180910001981720
:1003700018F085B18D7F85B99F918F910F900FBE39
:100380000F901F9018959AB190649AB994B59360A4
:1003900094BD813021F484B5806C84BD03C084B5E4
:1003A000806884BD85B5887F85BD60347105C1F0E6
:1003B00038F46130710561F06830710569F01CC076
:1003C000611581E0780781F06115744089F014C0EF
:1003D00085B5816085BD089585B5826085BD089528
:1003E00085B5836085BD089585B5846085BD089514
:1003F00085B5856085BD089585B5856085BD089501
:1004000087BD0895A1E21A2EAA1BBB1BFD010DC0DA
:10041000AA1FBB1FEE1FFF1FA217B307E407F507B4
:1004200020F0A21BB30BE40BF50B661F771F881F90
:10043000991F1A9469F760957095809590959B0126
:10044000AC01BD01CF010895A29FB001B39FC001CF
:10045000A39F700D811D1124911DB29F700D811DF0
:0A0460001124911D0895F894FFCFB8
:00000001FF
