S0190000506F73746C61626F7261746F72696F5F352E7372656333
S11300000C9434000C9446000C9446000C94460066
S11300100C9446000C9446000C9446000C94460044
S11300200C9446000C9446000C9446000C945A011F
S11300300C9446000C9446000C9446000C94460024
S11300400C9446000C9446000C9446000C94460014
S11300500C9446000C949E000C9446000C944600AC
S11300600C9446000C94460011241FBECFEFD8E038
S1130070DEBFCDBF21E0A0E0B1E001C01D92A630FB
S1130080B207E1F70E945B000C94CC010C940000D1
S1130090809100018770806680937C00EAE7F0E03D
S11300A08FEA808310927B0087E080937E008081BA
S11300B0806480830895F89460E074E080E00E9496
S11300C07E0160E074E080E00E94D70062E08CE78B
S11300D090E00E9442010E9448007894209103011C
S11300E04CE1429F90011124A1E8B0E80E94BD01B7
S11300F0FC01EE0FEF2FEE1FFF0BF1952091040191
S1130100429F900111240E94BD01880F892F881FEE
S1130110990B9195C9E0C80F89E08E0F0E94BB012D
S11301208C2F0E943F01809105010E9457018FE3AB
S11301309CE90197F1F700C00000D0CF1F920F9205
S11301400FB60F9211248F93EF93FF9380910001C8
S1130150813061F018F0823089F016C08091790006
S11301608093030181E0809300010EC080917900A7
S11301708093040182E08093000106C0809179009D
S113018080930501109200018091000187708066C0
S113019080937C00EAE7F0E0808180648083FF91B3
S11301A0EF918F910F900FBE0F901F9018959AB1F9
S11301B098609AB9E0EBF0E010821092B10090815F
S11301C093609083813021F480818063808308C0B0
S11301D0E0EBF0E080818062808380818F7E808389
S11301E0E1EBF0E08081887F80836034710549F120
S11301F050F468307105C9F060327105E1F0613086
S11302007105B9F50CC0611581E0780731F161150C
S113021084E0780741F16038710559F518C0E1EBC5
S1130220F0E08081816080830895E1EBF0E08081DB
S1130230826080830895E1EBF0E0808183608083B5
S11302400895E1EBF0E08081846080830895E1EB20
S1130250F0E08081856080830895E1EBF0E08081A7
S1130260866080830895E1EBF0E08081876080837D
S11302700895E1EBF0E080818760808308958093A6
S1130280B40008959C0194B1926094B910928000D6
S1130290686060938100309389002093880082E035
S11302A080936F00109202011092010108958093CF
S11302B0010108951F920F920FB60F9211248F938C
S11302C09F93809102018F5F8093020180910201CC
S11302D0811104C085B1826085B909C09091020181
S11302E080910101981303C085B18D7F85B99F91D9
S11302F08F910F900FBE0F901F9018959AB1906434
S11303009AB994B5936094BD813021F484B5806C1E
S113031084BD03C084B5806884BD85B5887F85BDF0
S113032060347105C1F038F46130710561F06830F2
S1130330710569F01CC0611581E0780781F06115D1
S1130340744089F014C085B5816085BD089585B574
S1130350826085BD089585B5836085BD089585B5A2
S1130360846085BD089585B5856085BD089585B58E
S1130370856085BD089587BD0895A29FB001B39F90
S1130380C001A39F700D811D1124911DB29F700D9A
S10F0390811D1124911D0895F894FFCFE5
S9030000FC
