:100000000C9434000C943E000C943E000C943E0082
:100010000C943E000C943E000C943E000C943E0068
:100020000C943E000C943E000C943E000C943E0058
:100030000C943E000C943E000C943E000C943E0048
:100040000C943E000C943E000C943E000C943E0038
:100050000C943E000C943E000C943E000C943E0028
:100060000C943E000C943E0011241FBECFEFD8E04C
:10007000DEBFCDBF0E946E000C9466010C940000A0
:1000800087E880937A0083E080937E00089580E67D
:1000900080937C00EAE7F0E0808180648083809137
:1000A0007A0086FDFCCF80917900089581E68093E7
:1000B0007C00EAE7F0E080818064808380917A00B0
:1000C00086FDFCCFEAE7F0E0808180648083809148
:1000D0007A0086FDFCCF809179000895F89460E065
:1000E00074E080E00E94180160E074E080E00E940B
:1000F000AD000E94400078940E944700C82F0E94E3
:100100005600582F4CE14C9F90011124A1E8B0E813
:100110000E945701FC01EE0FEF2FEE1FFF0BF19530
:10012000459F900111240E945701880F892F881F35
:10013000990B9195C9E0C80F89E08E0F0E94550177
:100140008C2F0E9415012FEF89EF90E02150804005
:100150009040E1F700C00000CFCF9AB198609AB903
:10016000E0EBF0E010821092B100908193609083F8
:10017000813021F480818063808308C0E0EBF0E06F
:1001800080818062808380818F7E8083E1EBF0E0DC
:100190008081887F80836034710549F150F4683034
:1001A0007105C9F060327105E1F061307105B9F592
:1001B0000CC0611581E0780731F1611584E07807A2
:1001C00041F16038710559F518C0E1EBF0E080812C
:1001D000816080830895E1EBF0E08081826080831C
:1001E0000895E1EBF0E08081836080830895E1EB86
:1001F000F0E08081846080830895E1EBF0E080810D
:10020000856080830895E1EBF0E0808186608083E3
:100210000895E1EBF0E08081876080830895E1EB51
:10022000F0E080818760808308958093B400089512
:100230009AB190649AB994B5936094BD813021F4D9
:1002400084B5806C84BD03C084B5806884BD85B5E9
:10025000887F85BD60347105C1F038F46130710567
:1002600061F06830710569F01CC0611581E07807A4
:1002700081F06115744089F014C085B5816085BD39
:10028000089585B5826085BD089585B5836085BD77
:10029000089585B5846085BD089585B5856085BD63
:1002A000089585B5856085BD089587BD0895A29F91
:1002B000B001B39FC001A39F700D811D1124911D3A
:1002C000B29F700D811D1124911D0895F894FFCFE8
:00000001FF
