S01800005072656C61626F7261746F72696F20352E73726563F2
S11300000C9434000C943E000C943E000C943E007E
S11300100C943E000C943E000C943E000C943E0064
S11300200C943E000C943E000C943E000C943E0054
S11300300C943E000C943E000C943E000C943E0044
S11300400C943E000C943E000C943E000C943E0034
S11300500C943E000C943E000C943E000C943E0024
S11300600C943E000C943E0011241FBECFEFD8E048
S1130070DEBFCDBF0E9456000C94C9000C94000052
S113008080E680937C0087EC80937A0081E0809303
S11300907E000895EAE7F0E08081806480838091A7
S11300A07A0086FDFCCF809179000895F89460E091
S11300B074E080E00E947B000E94400078940E94DB
S11300C04A009CE1899F90011124A1E8B0E80E94B4
S11300D0BA00880F892F881F990B9195875F0E941A
S11300E0B8002FEF89EF90E0215080409040E1F775
S11300F000C00000E4CF9AB190649AB994B59360BB
S113010094BD813021F484B5806C84BD03C084B572
S1130110806884BD85B5887F85BD60347105C1F074
S113012038F46130710561F06830710569F01CC004
S1130130611581E0780781F06115744089F014C07D
S113014085B5816085BD089585B5826085BD0895B6
S113015085B5836085BD089585B5846085BD0895A2
S113016085B5856085BD089585B5856085BD08958F
S113017087BD0895A29FB001B39FC001A39F700DD6
S1130180811D1124911DB29F700D811D1124911D9B
S10901900895F894FFCF6E
S9030000FC
