S01400004C61626F7261746F72696F362E737265635C
S11300000C9434000C9449000C9449000C9449005D
S11300100C9449000C9449000C9449000C94490038
S11300200C9449000C9449000C9449000C94490028
S11300300C9449000C9449000C9449000C94490018
S11300400C9449000C9449000C9488000C944900C9
S11300500C9449000C9449000C9449000C944900F8
S11300600C9449000C94490011241FBECFEFD8E032
S1130070DEBFCDBF11E0A0E0B1E0E0E6F1E002C0F8
S113008005900D92A031B107D9F70E9481000C941C
S1130090AE000C9400008AB182608AB98AB18E7F66
S11300A08AB91092C00088E98093C10086E08093E9
S11300B0C20087E690E09093C5008093C400089541
S11300C0F8948FEF84B90E944B007894089590912E
S11300D0C00095FFFCCF8093C60008950F931F9333
S11300E0CF938C01C0E003C00E946700CF5FF8018A
S11300F0EC0FF11D80818111F7CFCF911F910F91EA
S113010008950E94600080E091E00E946E00FFCF9D
S11301101F920F920FB60F9211242F933F934F9378
S11301205F936F937F938F939F93AF93BF93EF935B
S1130130FF938091C6000E946700FF91EF91BF91E9
S1130140AF919F918F917F916F915F914F913F916B
S11301502F910F900FBE0F901F901895F894FFCF1A
S11301604D75636861732067726163696173000030
S9030000FC
