:100000000C9434000C9451000C9451000C94510049
:100010000C94B1000C9451000C9451000C945100BC
:100020000C9451000C9489000C9451000C945100D4
:100030000C9451000C9451000C9451000C945100FC
:100040000C94CE000C9451000C9451000C9451006F
:100050000C9451000C945D000C9451000C945100D0
:100060000C9451000C94510011241FBECFEFD8E026
:10007000DEBFCDBF11E0A0E0B1E0E0E5F2E002C0FC
:1000800005900D92A031B107D9F721E0A0E1B1E0D0
:1000900001C01D92A531B207E1F70E94FD000C944A
:1000A00026010C94000082E680937C008FEE809302
:1000B0007A0084E080937E0008951F920F920FB61D
:1000C0000F9211248F93AF93BF93CF93DF93EF934E
:1000D000FF93C9E7D0E0E881E295EF70F0E0E050EF
:1000E000FF4F8081A2E1B1E08C93E881EF70F0E0F6
:1000F000E050FF4F808111968C93FF91EF91DF913B
:10010000CF91BF91AF918F910F900FBE0F901F9025
:1001100018951F920F920FB60F9211248F9383E8B8
:100120008093B20085B18C7F85B9809110018111D7
:100130000AC0809112018BB985B1816085B981E0D7
:100140008093100108C0809113018BB985B1826042
:1001500085B9109210018F910F900FBE0F901F90D4
:1001600018951F920F920FB60F9211248F93EF9351
:10017000FF9386B18370809314018AE886BD85E081
:1001800085BDE8E6F0E080818D7F8083FF91EF916F
:100190008F910F900FBE0F901F9018951F920F9286
:1001A0000FB60F9211242F938F939F93EF93FF938A
:1001B00015BC86B1282F23709091140129130EC00D
:1001C00080FF05C0909111019F5F9093110181FF05
:1001D00005C080911101815080931101E8E6F0E0A3
:1001E000808182608083FF91EF919F918F912F9109
:1001F0000F900FBE0F901F9018958FEF8AB984B1A2
:10020000836084B987B18C7F87B988B1836088B9EE
:100210001092B00084E08093B10081E08093700080
:1002200083E88093B200E8E6F0E08081826080831A
:10023000ECE6F0E0808183608083EEE6F0E0808190
:10024000816080830E9453007894FFCFF894FFCFA1
:100250003F065B4F666D7D077F67777C395E7971FE
:00000001FF
